:020000040800F2
:100000009806002029020008310200083302000887
:10001000350200083702000839020008000000001D
:100020000000000000000000000000003B0200088B
:100030003D020008000000003F0200087D060008A5
:10004000430200084302000843020008430200087C
:100050004302000843020008E50200080D030008FF
:10006000350300085D03000843020008430200084E
:10007000430200084302000843020008430200084C
:10008000430200084302000843020008430200083C
:10009000430200084302000843020008430200082C
:1000A000430200084302000843020008430200081C
:1000B000A9070008C107000843020008430200081E
:1000C00043020008430200084302000843020008FC
:1000D00043020008430200084302000843020008EC
:1000E00043020008430200084302000843020008DC
:1000F00043020008430200084302000843020008CC
:1001000043020008430200084302000843020008BB
:1001100043020008430200084302000843020008AB
:10012000430200084302000843020008430200089B
:10013000430200084302000843020008430200088B
:10014000430200084302000843020008430200087B
:10015000430200084302000843020008430200086B
:10016000430200084302000843020008430200085B
:100170004302000843020008430200080000000098
:10018000430200084302000800F002F800F03CF8C7
:100190000AA090E8000C82448344AAF10107DA45E2
:1001A00001D100F031F8AFF2090EBAE80F0013F0F8
:1001B000010F18BFFB1A43F0010318478009000024
:1001C000A0090000103A24BF78C878C1FAD85207B5
:1001D00024BF30C830C144BF04680C6070470000C1
:1001E0000023002400250026103A28BF78C1FBD840
:1001F000520728BF30C148BF0B6070471FB500F0E1
:100200008BFC1FBD10B510BD00F031F81146FFF793
:10021000F5FF00F0FFFB00F04FF803B4FFF7F2FF2B
:1002200003BC00F057F80000094880470948004720
:10023000FEE7FEE7FEE7FEE7FEE7FEE7FEE7FEE796
:10024000FEE7FEE704480549054A064B70470000F3
:100250004507000889010008980000209806002042
:10026000980200209802002070477047704775463A
:1002700000F02CF8AE4605006946534620F0070012
:10028000854618B020B5FFF7DDFFBDE820404FF0F0
:1002900000064FF000074FF000084FF0000B21F070
:1002A0000701AC46ACE8C009ACE8C009ACE8C0093D
:1002B000ACE8C0098D46704710B50446AFF3008026
:1002C0002046BDE81040FFF7A8BF00000048704777
:1002D0003800002001491820ABBEFEE726000200CE
:1002E0007047000010B5012000F052F850B10648E8
:1002F000008808B9012000E000200349088001209F
:1003000000F040F810BD00000A00002010B50220E7
:1003100000F03EF850B10648008808B9012000E01E
:10032000002003490880022000F02CF810BD0000D6
:100330000C00002010B5042000F02AF850B1064847
:10034000008808B9012000E000200349088004204B
:1003500000F018F810BD00000E00002010B50820B5
:1003600000F016F850B10648008808B9012000E0F6
:10037000002003490880082000F004F810BD0000A8
:10038000100000200149086070470000143C014043
:10039000014600200022074B1B6803EA0102054BBF
:1003A00014331B680B4013B10AB1012000E0002098
:1003B00070470000003C0140F0B50A4600210023D0
:1003C000002400BF3DE0012505FA01F3156805EAA8
:1003D00003049C4234D105684F000326BE40B54358
:1003E000056015794E00B5400668354305601579FE
:1003F000012D02D01579022D16D185684F000326F4
:10040000BE40B543856055794E00B540866835439A
:100410008560456801268E40B543456045689679FC
:100420008E40B6B235434560C5684F000326BE40D6
:10043000B543C560D5794E00B540C6683543C56043
:10044000491C1029BFD3F0BDF0B5002300244D078F
:10045000ED0E02FA05F3CE1000F1200555F82650F6
:100460004E07F70E0F26BE40B543CF1000F1200611
:1004700046F82750CE1000F1200555F8265045EAE1
:100480000304CE1000F1200545F82640F0BD41835D
:10049000704701837047000029B1064A1268024381
:1004A000044B1A6004E0034A12688243014B1A604D
:1004B000704700003038024029B1064A12680243F2
:1004C000044B1A6004E0034A12688243014B1A602D
:1004D0007047000040380240F0B50021002200249F
:1004E000022500260223324F3F6807F00C0121B19C
:1004F000042905D0082937D105E02E4F076036E0E2
:100500002D4F076033E02A4F3F1F3F68C7F38056E7
:10051000274F3F1F3F6807F03F036EB1264FB7FBE1
:10052000F3F7DFF88CC0ACF1040CDCF800C0CCF3BE
:10053000881C07FB0CF40CE01E4FB7FBF3F7DFF849
:1005400070C0ACF1040CDCF800C0CCF3881C07FBD5
:100550000CF4174F3F1F3F68C7F301477F1C7D0016
:10056000B4FBF5F7076002E0124F076000BF00BF61
:100570000F4F3F6807F0F0010909104F7A5C0768D8
:10058000D74047600A4F3F6807F4E051890A0B4F94
:100590007A5C4768D7408760054F3F6807F4604141
:1005A000490B064F7A5C4768D740C760F0BD000032
:1005B000083802400024F40000127A0024000020D1
:1005C00010B500F075F927490880084600884228D0
:1005D00017D008DC31280DD0322818D0332823D08A
:1005E00034283BD12DE0432818D0442823D0452877
:1005F00034D12DE001201C49088000201B490880CF
:100600002DE00120184908801849088027E00120C2
:100610001549088000201649088020E00120124971
:100620000880134908801AE001200F490880002043
:100630001049088013E001200B4908800D4908800B
:100640000DE001200849088000200B49088006E0E1
:100650000120054908800849088000E000BF00BF6C
:1006600010BD000004000020080000200A00002047
:100670000C0000200E0000201000002010B500F03B
:10068000C7F810BD70B5002000220223002402210B
:10069000274D2D6805F00C0020B1042806D008284D
:1006A00034D107E0234D244E356033E0234D224EF4
:1006B00035602FE01E4D2D1F2D68C5F380541C4D55
:1006C0002D1F2D6805F03F0154B11C4DB5FBF1F510
:1006D000174E361F3668C6F3881605FB06F209E08A
:1006E000144DB5FBF1F5124E361F3668C6F3881669
:1006F00005FB06F20E4D2D1F2D68C5F301456D1C3F
:100700006B00B2FBF3F50C4E356003E0094D0A4E69
:10071000356000BF00BF064D2D68C5F30315084EB8
:10072000705D054D2D68C540034E356070BD0000FD
:10073000083802400024F4003400002000127A003F
:10074000220B00081448006840F470001249086049
:100750001248006840F001001049086000200F496D
:10076000083108600D4800680D4908400B490860D1
:100770000C48091D0860081F006820F48020091F2C
:100780000860002005490C3108604FF00060024904
:10079000803908607047000088ED00E000380240B2
:1007A000FFFFF6FE1030002410B50121880700F08D
:1007B0001EF818B10121880700F016F810BD0000DE
:1007C00010B50121064800F012F840B10548007844
:1007D000401C044908700121014800F005F810BDD3
:1007E000000400401A000020CA430282704730B55E
:1007F0000246002000230024158A05EA010395899A
:1008000005EA010413B10CB1012000E0002030BD65
:100810000448006820B103480068401E0149086090
:10082000704700000000002000B587B00121084695
:10083000FFF732FE01214804FFF73EFE07220221A6
:100840001948FFF701FE072203211748FFF7FCFDB7
:100850000C20059002208DF818008DF8190000205A
:100860008DF81A0001208DF81B0005A90E48FFF72E
:10087000A3FD4FF4165001900020ADF810000C209D
:10088000ADF80E000020ADF80C00ADF80A00ADF890
:10089000080001A9054800F033F80121034800F0E1
:1008A00015F807B000BD0000000002400044004001
:1008B00010B500BF2021044800F014F80028F9D03A
:1008C000014800F087F810BD0044004021B1828942
:1008D00042F40052828104E082894DF6FF731A408F
:1008E0008281704702460020B1F5007F00D100BF31
:1008F00013880B400BB1012000E00020704700007E
:100900002DE9FF4705460E460024A14600BFA0463C
:10091000B08900B100BF2C8A24F44054F08804430D
:100920002C82AC8941F20C608443B0883189084341
:10093000718908430443AC81AC8A24F44074B089C3
:100940000443AC826846FFF7C7FD2048854202D0C9
:100950001F48854202D1DDF80C9001E0DDF80890D7
:10096000A88900F4004040B109EBC90000EB091070
:1009700031684900B0FBF1F707E009EBC90000EB73
:10098000091031688900B0FBF1F76420B7FBF0F083
:1009900004012009642101FB1078A88900F40040BB
:1009A00040B1322000EBC800B0FBF1F000F00700CE
:1009B000044308E0322000EB08106421B0FBF1F0A2
:1009C00000F00F0004432C81BDE8FF8700100140B8
:1009D0000014014001468888C0F3080070470000F9
:1009E00010B501210820FFF757FD4FF4704007496B
:1009F00008600120087100208871032048710020E0
:100A0000C8710348FFF7D8FC10BD00001C0000208F
:100A1000000C0240FFF736FE1A4800684FF47A7265
:100A2000B0FBF2F1481EB0F1807F01D301201BE042
:100A3000481E4FF0E022506150170F22002804DBBF
:100A400013071C0E104B1C5406E013071D0E0F4B12
:100A500000F00F04241F1D5500BF00204FF0E022BE
:100A6000906107201061002008B100BFFEE7FFF78A
:100A7000B7FFFFF7D9FE03E0FFF7A2FD00F008F88B
:100A8000FAE700003400002000E400E018ED00E088
:100A900010B51C480088012804D101031A48FFF74B
:100AA000F8FC04E04FF480511748FFF7F0FC1748BA
:100AB0000088012804D141031348FFF7EAFC04E051
:100AC0004FF400511048FFF7E2FC1148008801285C
:100AD00004D181030C48FFF7DCFC04E04FF48041B3
:100AE0000948FFF7D4FC0B480088012804D1C10352
:100AF0000548FFF7CEFC04E04FF400410248FFF741
:100B0000C6FC10BD0A000020000C02400C000020B2
:100B10000E000020100000204FF04070E1EE100A9F
:100B200070470000000000000000010203040607F7
:100B30000809000000000102030400005C0B00082B
:100B40000000002038000000C4010008940B0008D9
:100B50003800002060060000E001000800000000EE
:100B60000000000000000000000000000000000085
:100B70000000000000000000000000000000000075
:100B80000000000001020304010203040607080933
:040B90000024F40049
:040000050800018965
:00000001FF
